
dimmer.elf:     file format elf32-avr

Sections:
Idx Name          Size      VMA       LMA       File off  Algn
  0 .data         00000010  00800100  000005d0  00000664  2**0
                  CONTENTS, ALLOC, LOAD, DATA
  1 .text         000005d0  00000000  00000000  00000094  2**1
                  CONTENTS, ALLOC, LOAD, READONLY, CODE
  2 .bss          00000026  00800110  00800110  00000674  2**0
                  ALLOC
  3 .comment      00000030  00000000  00000000  00000674  2**0
                  CONTENTS, READONLY
  4 .debug_aranges 000000a8  00000000  00000000  000006a4  2**0
                  CONTENTS, READONLY, DEBUGGING
  5 .debug_info   00000bb3  00000000  00000000  0000074c  2**0
                  CONTENTS, READONLY, DEBUGGING
  6 .debug_abbrev 00000606  00000000  00000000  000012ff  2**0
                  CONTENTS, READONLY, DEBUGGING
  7 .debug_line   00000605  00000000  00000000  00001905  2**0
                  CONTENTS, READONLY, DEBUGGING
  8 .debug_frame  0000028c  00000000  00000000  00001f0c  2**2
                  CONTENTS, READONLY, DEBUGGING
  9 .debug_str    000003e3  00000000  00000000  00002198  2**0
                  CONTENTS, READONLY, DEBUGGING
 10 .debug_loc    00000705  00000000  00000000  0000257b  2**0
                  CONTENTS, READONLY, DEBUGGING
 11 .debug_ranges 00000018  00000000  00000000  00002c80  2**0
                  CONTENTS, READONLY, DEBUGGING

Disassembly of section .text:

00000000 <__vectors>:
   0:	19 c0       	rjmp	.+50     	; 0x34 <__ctors_end>
   2:	33 c0       	rjmp	.+102    	; 0x6a <__bad_interrupt>
   4:	32 c0       	rjmp	.+100    	; 0x6a <__bad_interrupt>
   6:	31 c0       	rjmp	.+98     	; 0x6a <__bad_interrupt>
   8:	30 c0       	rjmp	.+96     	; 0x6a <__bad_interrupt>
   a:	2f c0       	rjmp	.+94     	; 0x6a <__bad_interrupt>
   c:	2e c0       	rjmp	.+92     	; 0x6a <__bad_interrupt>
   e:	2d c0       	rjmp	.+90     	; 0x6a <__bad_interrupt>
  10:	2c c0       	rjmp	.+88     	; 0x6a <__bad_interrupt>
  12:	2b c0       	rjmp	.+86     	; 0x6a <__bad_interrupt>
  14:	2a c0       	rjmp	.+84     	; 0x6a <__bad_interrupt>
  16:	29 c0       	rjmp	.+82     	; 0x6a <__bad_interrupt>
  18:	28 c0       	rjmp	.+80     	; 0x6a <__bad_interrupt>
  1a:	27 c0       	rjmp	.+78     	; 0x6a <__bad_interrupt>
  1c:	26 c0       	rjmp	.+76     	; 0x6a <__bad_interrupt>
  1e:	25 c0       	rjmp	.+74     	; 0x6a <__bad_interrupt>
  20:	24 c0       	rjmp	.+72     	; 0x6a <__bad_interrupt>
  22:	23 c0       	rjmp	.+70     	; 0x6a <__bad_interrupt>
  24:	22 c0       	rjmp	.+68     	; 0x6a <__bad_interrupt>
  26:	21 c0       	rjmp	.+66     	; 0x6a <__bad_interrupt>
  28:	20 c0       	rjmp	.+64     	; 0x6a <__bad_interrupt>
  2a:	48 c2       	rjmp	.+1168   	; 0x4bc <__vector_21>
  2c:	1e c0       	rjmp	.+60     	; 0x6a <__bad_interrupt>
  2e:	1d c0       	rjmp	.+58     	; 0x6a <__bad_interrupt>
  30:	0d c1       	rjmp	.+538    	; 0x24c <__vector_24>
  32:	1b c0       	rjmp	.+54     	; 0x6a <__bad_interrupt>

00000034 <__ctors_end>:
  34:	11 24       	eor	r1, r1
  36:	1f be       	out	0x3f, r1	; 63
  38:	cf ef       	ldi	r28, 0xFF	; 255
  3a:	d4 e0       	ldi	r29, 0x04	; 4
  3c:	de bf       	out	0x3e, r29	; 62
  3e:	cd bf       	out	0x3d, r28	; 61

00000040 <__do_copy_data>:
  40:	11 e0       	ldi	r17, 0x01	; 1
  42:	a0 e0       	ldi	r26, 0x00	; 0
  44:	b1 e0       	ldi	r27, 0x01	; 1
  46:	e0 ed       	ldi	r30, 0xD0	; 208
  48:	f5 e0       	ldi	r31, 0x05	; 5
  4a:	02 c0       	rjmp	.+4      	; 0x50 <__do_copy_data+0x10>
  4c:	05 90       	lpm	r0, Z+
  4e:	0d 92       	st	X+, r0
  50:	a0 31       	cpi	r26, 0x10	; 16
  52:	b1 07       	cpc	r27, r17
  54:	d9 f7       	brne	.-10     	; 0x4c <__do_copy_data+0xc>

00000056 <__do_clear_bss>:
  56:	21 e0       	ldi	r18, 0x01	; 1
  58:	a0 e1       	ldi	r26, 0x10	; 16
  5a:	b1 e0       	ldi	r27, 0x01	; 1
  5c:	01 c0       	rjmp	.+2      	; 0x60 <.do_clear_bss_start>

0000005e <.do_clear_bss_loop>:
  5e:	1d 92       	st	X+, r1

00000060 <.do_clear_bss_start>:
  60:	a6 33       	cpi	r26, 0x36	; 54
  62:	b2 07       	cpc	r27, r18
  64:	e1 f7       	brne	.-8      	; 0x5e <.do_clear_bss_loop>
  66:	76 d2       	rcall	.+1260   	; 0x554 <main>
  68:	b1 c2       	rjmp	.+1378   	; 0x5cc <_exit>

0000006a <__bad_interrupt>:
  6a:	ca cf       	rjmp	.-108    	; 0x0 <__vectors>

0000006c <_TWI_wait>:
 * Waits until the TWI is no longer busy.
 */
static void _TWI_wait()
{
	/* Wait while the TWI interrupts are enabled */
	while(TWCR & (1<<TWIE));
  6c:	80 91 bc 00 	lds	r24, 0x00BC
  70:	80 fd       	sbrc	r24, 0
  72:	fc cf       	rjmp	.-8      	; 0x6c <_TWI_wait>
}
  74:	08 95       	ret

00000076 <TWI_initialize>:
 */
uint8_t TWI_initialize(uint8_t bitRate, uint8_t prescalar)
{
	static uint8_t initialized = 0;
	
	if(initialized) return TWI_INIT_DUPLICATE;
  76:	90 91 10 01 	lds	r25, 0x0110
  7a:	91 11       	cpse	r25, r1
  7c:	38 c0       	rjmp	.+112    	; 0xee <TWI_initialize+0x78>
	initialized = 1;
  7e:	91 e0       	ldi	r25, 0x01	; 1
  80:	90 93 10 01 	sts	0x0110, r25

	/* Initialize transmitter stack */
	TWI_TxStack.bottom		= TWI_TxBuffer;
  84:	20 e2       	ldi	r18, 0x20	; 32
  86:	31 e0       	ldi	r19, 0x01	; 1
  88:	30 93 19 01 	sts	0x0119, r19
  8c:	20 93 18 01 	sts	0x0118, r18
	TWI_TxStack.current		= TWI_TxBuffer;
  90:	30 93 1d 01 	sts	0x011D, r19
  94:	20 93 1c 01 	sts	0x011C, r18
	TWI_TxStack.top			= TWI_TxBuffer + TWI_TXBUF_SIZE - 1;
  98:	21 e3       	ldi	r18, 0x31	; 49
  9a:	31 e0       	ldi	r19, 0x01	; 1
  9c:	30 93 1b 01 	sts	0x011B, r19
  a0:	20 93 1a 01 	sts	0x011A, r18
	
	/* Initialize receiver stack */
	TWI_RxStack.bottom		= TWI_RxBuffer;
  a4:	2e e1       	ldi	r18, 0x1E	; 30
  a6:	31 e0       	ldi	r19, 0x01	; 1
  a8:	30 93 13 01 	sts	0x0113, r19
  ac:	20 93 12 01 	sts	0x0112, r18
	TWI_RxStack.current		= TWI_RxBuffer;
  b0:	30 93 17 01 	sts	0x0117, r19
  b4:	20 93 16 01 	sts	0x0116, r18
	TWI_RxStack.top			= TWI_RxBuffer + TWI_RXBUF_SIZE - 1;
  b8:	2f e1       	ldi	r18, 0x1F	; 31
  ba:	31 e0       	ldi	r19, 0x01	; 1
  bc:	30 93 15 01 	sts	0x0115, r19
  c0:	20 93 14 01 	sts	0x0114, r18
	/* Initialize receiver stack error code */
	TWI_RxStackError	= TWI_RXBUF_OK;
  c4:	97 e0       	ldi	r25, 0x07	; 7
  c6:	90 93 11 01 	sts	0x0111, r25
	
	/* Initialize TWI hardware */
	TWBR =	bitRate;						/* Set bit rate				*/
  ca:	80 93 b8 00 	sts	0x00B8, r24
	TWSR &=	~((1<<TWPS0) | (1<<TWPS1));		/* Set prescalar to 0b00	*/
  ce:	80 91 b9 00 	lds	r24, 0x00B9
  d2:	8c 7f       	andi	r24, 0xFC	; 252
  d4:	80 93 b9 00 	sts	0x00B9, r24
	TWSR |= (TWI_STATUS_MASK & prescalar);	/* Prescalar to prescalar	*/
  d8:	80 91 b9 00 	lds	r24, 0x00B9
  dc:	63 70       	andi	r22, 0x03	; 3
  de:	68 2b       	or	r22, r24
  e0:	60 93 b9 00 	sts	0x00B9, r22
	TWCR =	(1<<TWEN);						/* Enable TWI hardware,		*/
  e4:	84 e0       	ldi	r24, 0x04	; 4
  e6:	80 93 bc 00 	sts	0x00BC, r24
											/* everything else zero		*/
	return TWI_INIT_OK;
  ea:	81 e0       	ldi	r24, 0x01	; 1
  ec:	08 95       	ret
 */
uint8_t TWI_initialize(uint8_t bitRate, uint8_t prescalar)
{
	static uint8_t initialized = 0;
	
	if(initialized) return TWI_INIT_DUPLICATE;
  ee:	82 e0       	ldi	r24, 0x02	; 2
	TWSR &=	~((1<<TWPS0) | (1<<TWPS1));		/* Set prescalar to 0b00	*/
	TWSR |= (TWI_STATUS_MASK & prescalar);	/* Prescalar to prescalar	*/
	TWCR =	(1<<TWEN);						/* Enable TWI hardware,		*/
											/* everything else zero		*/
	return TWI_INIT_OK;
}
  f0:	08 95       	ret

000000f2 <TWI_setFrequency>:
 * DESCRIPTION:
 * Sets the frequency of the bus based on the given bitRate, and 
 * prescalar values.
 */
void TWI_setFrequency(uint8_t bitRate, uint8_t prescalar)
{
  f2:	cf 93       	push	r28
  f4:	df 93       	push	r29
  f6:	00 d0       	rcall	.+0      	; 0xf8 <TWI_setFrequency+0x6>
  f8:	cd b7       	in	r28, 0x3d	; 61
  fa:	de b7       	in	r29, 0x3e	; 62
	/* Wait until current bus transmission is finished before changing the */
	/* frequency of the bus */
	_TWI_wait();
  fc:	6a 83       	std	Y+2, r22	; 0x02
  fe:	89 83       	std	Y+1, r24	; 0x01
 100:	b5 df       	rcall	.-150    	; 0x6c <_TWI_wait>
	
	TWBR =	bitRate;						/* Set bit rate				*/
 102:	89 81       	ldd	r24, Y+1	; 0x01
 104:	80 93 b8 00 	sts	0x00B8, r24
	TWSR &=	~((1<<TWPS0) | (1<<TWPS1));		/* Set prescalar to 0b00	*/
 108:	e9 eb       	ldi	r30, 0xB9	; 185
 10a:	f0 e0       	ldi	r31, 0x00	; 0
 10c:	80 81       	ld	r24, Z
 10e:	8c 7f       	andi	r24, 0xFC	; 252
 110:	80 83       	st	Z, r24
	TWSR |= (TWI_STATUS_MASK & prescalar);	/* Prescalar to prescalar	*/	
 112:	80 81       	ld	r24, Z
 114:	6a 81       	ldd	r22, Y+2	; 0x02
 116:	63 70       	andi	r22, 0x03	; 3
 118:	68 2b       	or	r22, r24
 11a:	60 83       	st	Z, r22
}
 11c:	0f 90       	pop	r0
 11e:	0f 90       	pop	r0
 120:	df 91       	pop	r29
 122:	cf 91       	pop	r28
 124:	08 95       	ret

00000126 <TWI_pushPackets>:
 * DESCRIPTION:
 * This function pushes data onto the transmitter stack, it pushes numPackets
 * data bytes onto the stack from the array packets.
 */
uint8_t TWI_pushPackets(char const *packets, uint8_t numPackets)
{
 126:	0f 93       	push	r16
 128:	1f 93       	push	r17
 12a:	cf 93       	push	r28
 12c:	df 93       	push	r29
 12e:	00 d0       	rcall	.+0      	; 0x130 <TWI_pushPackets+0xa>
 130:	cd b7       	in	r28, 0x3d	; 61
 132:	de b7       	in	r29, 0x3e	; 62
	int i; /* For loop iterator */
	
	/* Check for overflow */
	if(TWI_TxStack.current - TWI_TxStack.bottom + numPackets > TWI_TXBUF_SIZE)
 134:	06 2f       	mov	r16, r22
 136:	10 e0       	ldi	r17, 0x00	; 0
 138:	20 91 1c 01 	lds	r18, 0x011C
 13c:	30 91 1d 01 	lds	r19, 0x011D
 140:	40 91 18 01 	lds	r20, 0x0118
 144:	50 91 19 01 	lds	r21, 0x0119
 148:	24 1b       	sub	r18, r20
 14a:	35 0b       	sbc	r19, r21
 14c:	20 0f       	add	r18, r16
 14e:	31 1f       	adc	r19, r17
 150:	23 31       	cpi	r18, 0x13	; 19
 152:	31 05       	cpc	r19, r1
 154:	ec f4       	brge	.+58     	; 0x190 <TWI_pushPackets+0x6a>
		return TWI_TXBUF_OVERFLOW;
	}
	
	/* Wait until the TWI hardware is no longer using the bus before changing */
	/* the Tx stack. */
	_TWI_wait();
 156:	89 83       	std	Y+1, r24	; 0x01
 158:	9a 83       	std	Y+2, r25	; 0x02
 15a:	88 df       	rcall	.-240    	; 0x6c <_TWI_wait>
 15c:	20 91 1c 01 	lds	r18, 0x011C
 160:	30 91 1d 01 	lds	r19, 0x011D
 164:	89 81       	ldd	r24, Y+1	; 0x01
 166:	e8 2f       	mov	r30, r24
 168:	9a 81       	ldd	r25, Y+2	; 0x02
 16a:	f9 2f       	mov	r31, r25
	
	for(i = 0; i < numPackets; i++)
 16c:	d9 01       	movw	r26, r18
 16e:	cd 01       	movw	r24, r26
 170:	82 1b       	sub	r24, r18
 172:	93 0b       	sbc	r25, r19
 174:	80 17       	cp	r24, r16
 176:	91 07       	cpc	r25, r17
 178:	1c f4       	brge	.+6      	; 0x180 <TWI_pushPackets+0x5a>
	{
		*TWI_TxStack.current = packets[i];
 17a:	81 91       	ld	r24, Z+
 17c:	8d 93       	st	X+, r24
 17e:	f7 cf       	rjmp	.-18     	; 0x16e <TWI_pushPackets+0x48>
 180:	20 0f       	add	r18, r16
 182:	31 1f       	adc	r19, r17
 184:	30 93 1d 01 	sts	0x011D, r19
 188:	20 93 1c 01 	sts	0x011C, r18
		TWI_TxStack.current++;
	}
	
	return TWI_TXBUF_OK;
 18c:	85 e0       	ldi	r24, 0x05	; 5
 18e:	01 c0       	rjmp	.+2      	; 0x192 <TWI_pushPackets+0x6c>
	int i; /* For loop iterator */
	
	/* Check for overflow */
	if(TWI_TxStack.current - TWI_TxStack.bottom + numPackets > TWI_TXBUF_SIZE)
	{
		return TWI_TXBUF_OVERFLOW;
 190:	86 e0       	ldi	r24, 0x06	; 6
		*TWI_TxStack.current = packets[i];
		TWI_TxStack.current++;
	}
	
	return TWI_TXBUF_OK;
}
 192:	0f 90       	pop	r0
 194:	0f 90       	pop	r0
 196:	df 91       	pop	r29
 198:	cf 91       	pop	r28
 19a:	1f 91       	pop	r17
 19c:	0f 91       	pop	r16
 19e:	08 95       	ret

000001a0 <TWI_popPackets>:
 * input. The input numPackets dictates the number of packets that can be
 * read. If numPackets is greater than the size of the Rx stack then all
 * packets are copied.
 */
uint8_t TWI_popPackets(char *packets, uint8_t numPackets)
{
 1a0:	cf 93       	push	r28
 1a2:	df 93       	push	r29
 1a4:	00 d0       	rcall	.+0      	; 0x1a6 <TWI_popPackets+0x6>
 1a6:	1f 92       	push	r1
 1a8:	cd b7       	in	r28, 0x3d	; 61
 1aa:	de b7       	in	r29, 0x3e	; 62
	int i; /* For loop iterator */
	
	/* Wait for TWI hardware to finish with bus before reading from the */
	/* Rx stack. */
	_TWI_wait();
 1ac:	69 83       	std	Y+1, r22	; 0x01
 1ae:	8a 83       	std	Y+2, r24	; 0x02
 1b0:	9b 83       	std	Y+3, r25	; 0x03
 1b2:	5c df       	rcall	.-328    	; 0x6c <_TWI_wait>
 1b4:	69 81       	ldd	r22, Y+1	; 0x01
 1b6:	8a 81       	ldd	r24, Y+2	; 0x02
 1b8:	9b 81       	ldd	r25, Y+3	; 0x03
 1ba:	63 30       	cpi	r22, 0x03	; 3
 1bc:	08 f0       	brcs	.+2      	; 0x1c0 <TWI_popPackets+0x20>
 1be:	62 e0       	ldi	r22, 0x02	; 2
	/* than Rx stack size. */
	if(numPackets > TWI_RXBUF_SIZE) numPackets = TWI_RXBUF_SIZE;
	
	/* Set the current location in the stack to be at the bottom to remove */
	/* data in a FIFO order */
	TWI_RxStack.current = TWI_RxStack.bottom;
 1c0:	20 91 12 01 	lds	r18, 0x0112
 1c4:	30 91 13 01 	lds	r19, 0x0113
 1c8:	30 93 17 01 	sts	0x0117, r19
 1cc:	20 93 16 01 	sts	0x0116, r18
 1d0:	fc 01       	movw	r30, r24
	
	/* Copy data from the Rx stack into the array packets */
	for(i = 0; i < numPackets; i++)
 1d2:	d9 01       	movw	r26, r18
 1d4:	86 2f       	mov	r24, r22
 1d6:	90 e0       	ldi	r25, 0x00	; 0
 1d8:	ad 01       	movw	r20, r26
 1da:	42 1b       	sub	r20, r18
 1dc:	53 0b       	sbc	r21, r19
 1de:	48 17       	cp	r20, r24
 1e0:	59 07       	cpc	r21, r25
 1e2:	1c f4       	brge	.+6      	; 0x1ea <TWI_popPackets+0x4a>
	{
		packets[i] = *TWI_RxStack.current;
 1e4:	4d 91       	ld	r20, X+
 1e6:	41 93       	st	Z+, r20
 1e8:	f7 cf       	rjmp	.-18     	; 0x1d8 <TWI_popPackets+0x38>
 1ea:	28 0f       	add	r18, r24
 1ec:	39 1f       	adc	r19, r25
 1ee:	30 93 17 01 	sts	0x0117, r19
 1f2:	20 93 16 01 	sts	0x0116, r18
		TWI_RxStack.current++;
	}
	
	return TWI_RxStackError;
}							
 1f6:	80 91 11 01 	lds	r24, 0x0111
 1fa:	0f 90       	pop	r0
 1fc:	0f 90       	pop	r0
 1fe:	0f 90       	pop	r0
 200:	df 91       	pop	r29
 202:	cf 91       	pop	r28
 204:	08 95       	ret

00000206 <TWI_clearStack>:
 */
void TWI_clearStack(void)
{
	/* Wait until TWI hardware is finished with the Tx stack before clearing */
	/* it */
	_TWI_wait();
 206:	32 df       	rcall	.-412    	; 0x6c <_TWI_wait>
	
	/* Adjust current pointer to bottom of the stack */
	TWI_TxStack.current = TWI_TxStack.bottom;
 208:	80 91 18 01 	lds	r24, 0x0118
 20c:	90 91 19 01 	lds	r25, 0x0119
 210:	90 93 1d 01 	sts	0x011D, r25
 214:	80 93 1c 01 	sts	0x011C, r24
 218:	08 95       	ret

0000021a <TWI_sendPackets>:
 * byte put on the bus.
 */
void TWI_sendPackets(void)
{
	/* Do nothing if there is no data on the Tx stack */
	if(TWI_TxStack.current - TWI_TxStack.bottom < 1) return;
 21a:	80 91 1c 01 	lds	r24, 0x011C
 21e:	90 91 1d 01 	lds	r25, 0x011D
 222:	20 91 18 01 	lds	r18, 0x0118
 226:	30 91 19 01 	lds	r19, 0x0119
 22a:	82 1b       	sub	r24, r18
 22c:	93 0b       	sbc	r25, r19
 22e:	18 16       	cp	r1, r24
 230:	19 06       	cpc	r1, r25
 232:	3c f4       	brge	.+14     	; 0x242 <TWI_sendPackets+0x28>
	
	/* Wait for TWI hardware to finish with the bus lines */
	_TWI_wait();
 234:	1b df       	rcall	.-458    	; 0x6c <_TWI_wait>
	
	/* Set the Rx stack error to be OK */
	TWI_RxStackError = TWI_RXBUF_OK;
 236:	87 e0       	ldi	r24, 0x07	; 7
 238:	80 93 11 01 	sts	0x0111, r24
	
	/* Send a START condition on bus to start data transfer */
	TWCR =	(1<<TWSTA) |				/* Generate start condition		*/
 23c:	85 ea       	ldi	r24, 0xA5	; 165
 23e:	80 93 bc 00 	sts	0x00BC, r24
 242:	08 95       	ret

00000244 <TWI_TxStackSize>:
 * Returns how many data bytes fit into the Tx stack.
 */
uint8_t TWI_TxStackSize() 
{
	return TWI_TXBUF_SIZE;
}
 244:	82 e1       	ldi	r24, 0x12	; 18
 246:	08 95       	ret

00000248 <TWI_RxStackSize>:
 * Returns the number of data bytes that will fit into the Rx stack.
 */
uint8_t TWI_RxStackSize() 
{
	return TWI_RXBUF_SIZE;
}
 248:	82 e0       	ldi	r24, 0x02	; 2
 24a:	08 95       	ret

0000024c <__vector_24>:
 * When global interrupts are enabled this runs every time there is a TWI
 * event. The ISR deals with the status codes in the TWSR and continues
 * the transfer of data between slave and master. 
 */
ISR(TWI_vect)
{
 24c:	1f 92       	push	r1
 24e:	0f 92       	push	r0
 250:	0f b6       	in	r0, 0x3f	; 63
 252:	0f 92       	push	r0
 254:	11 24       	eor	r1, r1
 256:	8f 93       	push	r24
 258:	9f 93       	push	r25
 25a:	ef 93       	push	r30
 25c:	ff 93       	push	r31
	/* Switch status code, and mask prescale bits */
	switch(TWSR & TWI_PS_MASK)
 25e:	80 91 b9 00 	lds	r24, 0x00B9
 262:	88 7f       	andi	r24, 0xF8	; 248
 264:	80 33       	cpi	r24, 0x30	; 48
 266:	d9 f1       	breq	.+118    	; 0x2de <__vector_24+0x92>
 268:	68 f4       	brcc	.+26     	; 0x284 <__vector_24+0x38>
 26a:	88 31       	cpi	r24, 0x18	; 24
 26c:	f1 f0       	breq	.+60     	; 0x2aa <__vector_24+0x5e>
 26e:	28 f4       	brcc	.+10     	; 0x27a <__vector_24+0x2e>
 270:	88 30       	cpi	r24, 0x08	; 8
 272:	b1 f0       	breq	.+44     	; 0x2a0 <__vector_24+0x54>
 274:	80 31       	cpi	r24, 0x10	; 16
 276:	a1 f0       	breq	.+40     	; 0x2a0 <__vector_24+0x54>
 278:	63 c0       	rjmp	.+198    	; 0x340 <__vector_24+0xf4>
 27a:	80 32       	cpi	r24, 0x20	; 32
 27c:	c9 f1       	breq	.+114    	; 0x2f0 <__vector_24+0xa4>
 27e:	88 32       	cpi	r24, 0x28	; 40
 280:	a1 f0       	breq	.+40     	; 0x2aa <__vector_24+0x5e>
 282:	5e c0       	rjmp	.+188    	; 0x340 <__vector_24+0xf4>
 284:	88 34       	cpi	r24, 0x48	; 72
 286:	a1 f1       	breq	.+104    	; 0x2f0 <__vector_24+0xa4>
 288:	28 f4       	brcc	.+10     	; 0x294 <__vector_24+0x48>
 28a:	88 33       	cpi	r24, 0x38	; 56
 28c:	89 f1       	breq	.+98     	; 0x2f0 <__vector_24+0xa4>
 28e:	80 34       	cpi	r24, 0x40	; 64
 290:	b9 f1       	breq	.+110    	; 0x300 <__vector_24+0xb4>
 292:	56 c0       	rjmp	.+172    	; 0x340 <__vector_24+0xf4>
 294:	80 35       	cpi	r24, 0x50	; 80
 296:	a1 f1       	breq	.+104    	; 0x300 <__vector_24+0xb4>
 298:	88 35       	cpi	r24, 0x58	; 88
 29a:	09 f4       	brne	.+2      	; 0x29e <__vector_24+0x52>
 29c:	48 c0       	rjmp	.+144    	; 0x32e <__vector_24+0xe2>
 29e:	50 c0       	rjmp	.+160    	; 0x340 <__vector_24+0xf4>
					(1<<TWEN);					/* Enable TWI hardware			*/
			break;
			
		case TWI_REP_START:	
			/* Repeated start has been sent, SLA+R/~W is sent next */
			TWDR = *TWI_TxStack.bottom;
 2a0:	e0 91 18 01 	lds	r30, 0x0118
 2a4:	f0 91 19 01 	lds	r31, 0x0119
 2a8:	0d c0       	rjmp	.+26     	; 0x2c4 <__vector_24+0x78>
					(1<<TWEN);					/* Enable TWI hardware			*/
			break;
					
		case TWI_MTX_DATA_ACK:
			/* Sent data acknowledged, send next byte, or stop condition */
			if(TWI_TxStack.current - TWI_TxStack.bottom > 0)
 2aa:	e0 91 18 01 	lds	r30, 0x0118
 2ae:	f0 91 19 01 	lds	r31, 0x0119
 2b2:	80 91 1c 01 	lds	r24, 0x011C
 2b6:	90 91 1d 01 	lds	r25, 0x011D
 2ba:	8e 1b       	sub	r24, r30
 2bc:	9f 0b       	sbc	r25, r31
 2be:	18 16       	cp	r1, r24
 2c0:	19 06       	cpc	r1, r25
 2c2:	ac f5       	brge	.+106    	; 0x32e <__vector_24+0xe2>
			{
				/* There is more data in the Tx stack */
				TWDR = *TWI_TxStack.bottom;
 2c4:	80 81       	ld	r24, Z
 2c6:	80 93 bb 00 	sts	0x00BB, r24
				TWI_TxStack.bottom++;
 2ca:	80 91 18 01 	lds	r24, 0x0118
 2ce:	90 91 19 01 	lds	r25, 0x0119
 2d2:	01 96       	adiw	r24, 0x01	; 1
 2d4:	90 93 19 01 	sts	0x0119, r25
 2d8:	80 93 18 01 	sts	0x0118, r24
 2dc:	26 c0       	rjmp	.+76     	; 0x32a <__vector_24+0xde>
			}
			break;
			
		case TWI_MTX_DATA_NACK:
			/* Sent data not acknowledged, resend data */
			TWDR = *(TWI_TxStack.bottom - 1);
 2de:	e0 91 18 01 	lds	r30, 0x0118
 2e2:	f0 91 19 01 	lds	r31, 0x0119
 2e6:	31 97       	sbiw	r30, 0x01	; 1
 2e8:	80 81       	ld	r24, Z
 2ea:	80 93 bb 00 	sts	0x00BB, r24
 2ee:	1d c0       	rjmp	.+58     	; 0x32a <__vector_24+0xde>
			}
			break;
						
		case TWI_MRX_ADDR_NACK:
			/* Address not acknowledged, reset Tx stack, send a repeated start */
			TWI_TxStack.bottom = TWI_TxBuffer;
 2f0:	80 e2       	ldi	r24, 0x20	; 32
 2f2:	91 e0       	ldi	r25, 0x01	; 1
 2f4:	90 93 19 01 	sts	0x0119, r25
 2f8:	80 93 18 01 	sts	0x0118, r24
			
			TWCR =	(1<<TWSTA) |				/* Generate start condition		*/
 2fc:	85 ea       	ldi	r24, 0xA5	; 165
 2fe:	1e c0       	rjmp	.+60     	; 0x33c <__vector_24+0xf0>
					(1<<TWEN);					/* Enable TWI hardware			*/	
			break;
					
		case TWI_MRX_DATA_ACK:
			/* Data received, send ACK, or NACK */
			if(TWI_RxStack.top - TWI_RxStack.current >= 0)
 300:	e0 91 16 01 	lds	r30, 0x0116
 304:	f0 91 17 01 	lds	r31, 0x0117
 308:	80 91 14 01 	lds	r24, 0x0114
 30c:	90 91 15 01 	lds	r25, 0x0115
 310:	8e 1b       	sub	r24, r30
 312:	9f 0b       	sbc	r25, r31
 314:	97 fd       	sbrc	r25, 7
 316:	09 c0       	rjmp	.+18     	; 0x32a <__vector_24+0xde>
			{
				/* There is more room in Rx stack for data */
				*TWI_RxStack.current = TWDR;
 318:	80 91 bb 00 	lds	r24, 0x00BB
 31c:	81 93       	st	Z+, r24
				TWI_RxStack.current++;
 31e:	f0 93 17 01 	sts	0x0117, r31
 322:	e0 93 16 01 	sts	0x0116, r30
				
				TWCR =	(1<<TWINT) | (1<<TWIE) |	/* Start TWI, enable interrupts */
 326:	85 ec       	ldi	r24, 0xC5	; 197
 328:	09 c0       	rjmp	.+18     	; 0x33c <__vector_24+0xf0>
						(1<<TWEN) | (1<<TWEA);		/* Enable TWI hardware, and ACK	*/
			}
			else
			{
				/* Send NACK */
				TWCR =	(1<<TWINT) | (1<<TWIE) |	/* Start TWI, enable interrupts */
 32a:	85 e8       	ldi	r24, 0x85	; 133
 32c:	07 c0       	rjmp	.+14     	; 0x33c <__vector_24+0xf0>
			}
			break;
			
		case TWI_MRX_DATA_NACK:
			/* NACK sent, reset Tx stack, send stop condition */
			TWI_TxStack.bottom = TWI_TxBuffer;
 32e:	80 e2       	ldi	r24, 0x20	; 32
 330:	91 e0       	ldi	r25, 0x01	; 1
 332:	90 93 19 01 	sts	0x0119, r25
 336:	80 93 18 01 	sts	0x0118, r24
			
			TWCR =	(1<<TWSTO) |				/* Generate stop condition		*/
 33a:	84 e9       	ldi	r24, 0x94	; 148
 33c:	80 93 bc 00 	sts	0x00BC, r24
			break;

		default:
			break;
	}
 340:	ff 91       	pop	r31
 342:	ef 91       	pop	r30
 344:	9f 91       	pop	r25
 346:	8f 91       	pop	r24
 348:	0f 90       	pop	r0
 34a:	0f be       	out	0x3f, r0	; 63
 34c:	0f 90       	pop	r0
 34e:	1f 90       	pop	r1
 350:	18 95       	reti

00000352 <LCD_initialize>:
 *
 * DESCRIPTION:
 * Initializes the LCD screen
 */
uint8_t LCD_initialize(void)
{
 352:	1f 93       	push	r17
 354:	cf 93       	push	r28
 356:	df 93       	push	r29
 358:	cd b7       	in	r28, 0x3d	; 61
 35a:	de b7       	in	r29, 0x3e	; 62
 35c:	2b 97       	sbiw	r28, 0x0b	; 11
 35e:	0f b6       	in	r0, 0x3f	; 63
 360:	f8 94       	cli
 362:	de bf       	out	0x3e, r29	; 62
 364:	0f be       	out	0x3f, r0	; 63
 366:	cd bf       	out	0x3d, r28	; 61
	static uint8_t	initialized = 0;
	uint8_t			LCD_returnStatus;
	char			LCD_initCodes[LCD_INIT_LENGTH];
	
	if(initialized) return LCD_INIT_DUPLICATE;
 368:	80 91 32 01 	lds	r24, 0x0132
 36c:	81 11       	cpse	r24, r1
 36e:	29 c0       	rjmp	.+82     	; 0x3c2 <LCD_initialize+0x70>
	initialized = 1;
 370:	81 e0       	ldi	r24, 0x01	; 1
 372:	80 93 32 01 	sts	0x0132, r24
	
	if(TWI_TxStackSize() < LCD_MAX_PACKET_LEN) return LCD_INIT_OVERFLOW;
 376:	66 df       	rcall	.-308    	; 0x244 <TWI_TxStackSize>
 378:	81 31       	cpi	r24, 0x11	; 17
 37a:	28 f1       	brcs	.+74     	; 0x3c6 <LCD_initialize+0x74>
	
	/* Init TWI hardware, and determine return value of this function */
	if(TWI_initialize(LCD_TWI_BITRATE, LCD_TWI_PRESCALE) == TWI_INIT_DUPLICATE)
 37c:	60 e0       	ldi	r22, 0x00	; 0
 37e:	82 e0       	ldi	r24, 0x02	; 2
 380:	7a de       	rcall	.-780    	; 0x76 <TWI_initialize>
 382:	82 30       	cpi	r24, 0x02	; 2
 384:	11 f4       	brne	.+4      	; 0x38a <LCD_initialize+0x38>
	{
		 /* TWI was already initialized, its frequency was not changed then */
		 LCD_returnStatus = LCD_INIT_OK; 	
 386:	11 e0       	ldi	r17, 0x01	; 1
 388:	01 c0       	rjmp	.+2      	; 0x38c <LCD_initialize+0x3a>
	}
	else LCD_returnStatus = LCD_INIT_TWIFREQ_CHANGED;
 38a:	12 e0       	ldi	r17, 0x02	; 2
	
	/* Put slave address into LCD_initcodes */
	LCD_initCodes[0] = LCD_SLAVEADDRESS;
 38c:	80 e5       	ldi	r24, 0x50	; 80
 38e:	89 83       	std	Y+1, r24	; 0x01
	
	/* Set the contrast of the LCD */
	LCD_initCodes[1] = LCD_PREFIX;
 390:	9e ef       	ldi	r25, 0xFE	; 254
 392:	9a 83       	std	Y+2, r25	; 0x02
	LCD_initCodes[2] = LCD_SET_CONTRAST;
 394:	82 e5       	ldi	r24, 0x52	; 82
 396:	8b 83       	std	Y+3, r24	; 0x03
	LCD_initCodes[3] = LCD_CONTRAST;
 398:	88 e2       	ldi	r24, 0x28	; 40
 39a:	8c 83       	std	Y+4, r24	; 0x04
	
	/* Set the brightness of the LCD */
	LCD_initCodes[4] = LCD_PREFIX;
 39c:	9d 83       	std	Y+5, r25	; 0x05
	LCD_initCodes[5] = LCD_SET_BACKLIGHT;
 39e:	83 e5       	ldi	r24, 0x53	; 83
 3a0:	8e 83       	std	Y+6, r24	; 0x06
	LCD_initCodes[6] = LCD_BRIGHTNESS;
 3a2:	88 e0       	ldi	r24, 0x08	; 8
 3a4:	8f 83       	std	Y+7, r24	; 0x07
	
	/* Turn blinking, and underlined cursor off */
	LCD_initCodes[7] = LCD_PREFIX;
 3a6:	98 87       	std	Y+8, r25	; 0x08
	LCD_initCodes[8] = LCD_BLINKING_OFF;
 3a8:	8c e4       	ldi	r24, 0x4C	; 76
 3aa:	89 87       	std	Y+9, r24	; 0x09
	LCD_initCodes[9] = LCD_PREFIX;
 3ac:	9a 87       	std	Y+10, r25	; 0x0a
	LCD_initCodes[10] = LCD_UNDERLINE_OFF;
 3ae:	88 e4       	ldi	r24, 0x48	; 72
 3b0:	8b 87       	std	Y+11, r24	; 0x0b
	
	/* Clear the TWI stack of any previous data */
	/* Push the initialization sequence onto the TWI stack, and send it */
	TWI_clearStack();
 3b2:	29 df       	rcall	.-430    	; 0x206 <TWI_clearStack>
	TWI_pushPackets(LCD_initCodes, LCD_INIT_LENGTH);
 3b4:	6b e0       	ldi	r22, 0x0B	; 11
 3b6:	ce 01       	movw	r24, r28
 3b8:	01 96       	adiw	r24, 0x01	; 1
 3ba:	b5 de       	rcall	.-662    	; 0x126 <TWI_pushPackets>
	TWI_sendPackets();
 3bc:	2e df       	rcall	.-420    	; 0x21a <TWI_sendPackets>
	
	return LCD_returnStatus;
 3be:	81 2f       	mov	r24, r17
 3c0:	03 c0       	rjmp	.+6      	; 0x3c8 <LCD_initialize+0x76>
{
	static uint8_t	initialized = 0;
	uint8_t			LCD_returnStatus;
	char			LCD_initCodes[LCD_INIT_LENGTH];
	
	if(initialized) return LCD_INIT_DUPLICATE;
 3c2:	83 e0       	ldi	r24, 0x03	; 3
 3c4:	01 c0       	rjmp	.+2      	; 0x3c8 <LCD_initialize+0x76>
	initialized = 1;
	
	if(TWI_TxStackSize() < LCD_MAX_PACKET_LEN) return LCD_INIT_OVERFLOW;
 3c6:	84 e0       	ldi	r24, 0x04	; 4
	TWI_pushPackets(LCD_initCodes, LCD_INIT_LENGTH);
	TWI_sendPackets();
	
	return LCD_returnStatus;
	
}
 3c8:	2b 96       	adiw	r28, 0x0b	; 11
 3ca:	0f b6       	in	r0, 0x3f	; 63
 3cc:	f8 94       	cli
 3ce:	de bf       	out	0x3e, r29	; 62
 3d0:	0f be       	out	0x3f, r0	; 63
 3d2:	cd bf       	out	0x3d, r28	; 61
 3d4:	df 91       	pop	r29
 3d6:	cf 91       	pop	r28
 3d8:	1f 91       	pop	r17
 3da:	08 95       	ret

000003dc <LCD_setCursor>:
 * DESCRIPTION:
 * Sets the position of the cursor on the LCD screen. 0x00 - 0x0F is on
 * the top line, and 0x10 - 0x1F is on the bottom line.
 */
void LCD_setCursor(uint8_t position)
{
 3dc:	cf 93       	push	r28
 3de:	df 93       	push	r29
 3e0:	00 d0       	rcall	.+0      	; 0x3e2 <LCD_setCursor+0x6>
 3e2:	00 d0       	rcall	.+0      	; 0x3e4 <LCD_setCursor+0x8>
 3e4:	cd b7       	in	r28, 0x3d	; 61
 3e6:	de b7       	in	r29, 0x3e	; 62
	char LCD_cursorCodes[LCD_SETCURS_LEN];
	
	/* Adjust position to place cursor where it should go */
	position = CursorPos(position);
 3e8:	80 31       	cpi	r24, 0x10	; 16
 3ea:	08 f0       	brcs	.+2      	; 0x3ee <LCD_setCursor+0x12>
 3ec:	80 5d       	subi	r24, 0xD0	; 208
	
	/* Set up the packets to send to the LCD which change the position */
	LCD_cursorCodes[0] = LCD_SLAVEADDRESS;
 3ee:	90 e5       	ldi	r25, 0x50	; 80
 3f0:	99 83       	std	Y+1, r25	; 0x01
	LCD_cursorCodes[1] = LCD_PREFIX;
 3f2:	9e ef       	ldi	r25, 0xFE	; 254
 3f4:	9a 83       	std	Y+2, r25	; 0x02
	LCD_cursorCodes[2] = LCD_SET_CURSOR;
 3f6:	95 e4       	ldi	r25, 0x45	; 69
 3f8:	9b 83       	std	Y+3, r25	; 0x03
	LCD_cursorCodes[3] = (char) position;
 3fa:	8c 83       	std	Y+4, r24	; 0x04
	
	/* Clear TWI stack, push the packets on the TWI stack, and send them */
	TWI_clearStack();
 3fc:	04 df       	rcall	.-504    	; 0x206 <TWI_clearStack>
	TWI_pushPackets(LCD_cursorCodes, LCD_SETCURS_LEN);
 3fe:	64 e0       	ldi	r22, 0x04	; 4
 400:	ce 01       	movw	r24, r28
 402:	01 96       	adiw	r24, 0x01	; 1
 404:	90 de       	rcall	.-736    	; 0x126 <TWI_pushPackets>
	TWI_sendPackets();
 406:	09 df       	rcall	.-494    	; 0x21a <TWI_sendPackets>
}
 408:	0f 90       	pop	r0
 40a:	0f 90       	pop	r0
 40c:	0f 90       	pop	r0
 40e:	0f 90       	pop	r0
 410:	df 91       	pop	r29
 412:	cf 91       	pop	r28
 414:	08 95       	ret

00000416 <LCD_write>:
 * DESCRIPTION:
 * Writes the characters in the string message to the LCD screen. msgSize
 * is how many characters are in the string message.
 */
void LCD_write(char const *message, uint8_t msgSize)
{
 416:	ff 92       	push	r15
 418:	0f 93       	push	r16
 41a:	1f 93       	push	r17
 41c:	cf 93       	push	r28
 41e:	df 93       	push	r29
 420:	1f 92       	push	r1
 422:	cd b7       	in	r28, 0x3d	; 61
 424:	de b7       	in	r29, 0x3e	; 62
 426:	8c 01       	movw	r16, r24
 428:	f6 2e       	mov	r15, r22
	char LCD_address[1];
	
	/* Clear TWI stack of previous packets */
	TWI_clearStack();
 42a:	ed de       	rcall	.-550    	; 0x206 <TWI_clearStack>
	
	/* Push the slave address onto the TWI stack */
	LCD_address[0] = LCD_SLAVEADDRESS;
 42c:	80 e5       	ldi	r24, 0x50	; 80
 42e:	89 83       	std	Y+1, r24	; 0x01
	TWI_pushPackets(LCD_address, 1);
 430:	61 e0       	ldi	r22, 0x01	; 1
 432:	ce 01       	movw	r24, r28
 434:	01 96       	adiw	r24, 0x01	; 1
 436:	77 de       	rcall	.-786    	; 0x126 <TWI_pushPackets>
	
	/* Push the message onto the TWI stack and send it */
	TWI_pushPackets(message, msgSize);
 438:	6f 2d       	mov	r22, r15
 43a:	c8 01       	movw	r24, r16
 43c:	74 de       	rcall	.-792    	; 0x126 <TWI_pushPackets>
	TWI_sendPackets();
 43e:	ed de       	rcall	.-550    	; 0x21a <TWI_sendPackets>
}
 440:	0f 90       	pop	r0
 442:	df 91       	pop	r29
 444:	cf 91       	pop	r28
 446:	1f 91       	pop	r17
 448:	0f 91       	pop	r16
 44a:	ff 90       	pop	r15
 44c:	08 95       	ret

0000044e <LCD_clear>:
 *
 * DESCRIPTION:
 * Clears all text from the LCD screen.
 */
void LCD_clear(void)
{
 44e:	cf 93       	push	r28
 450:	df 93       	push	r29
 452:	00 d0       	rcall	.+0      	; 0x454 <LCD_clear+0x6>
 454:	1f 92       	push	r1
 456:	cd b7       	in	r28, 0x3d	; 61
 458:	de b7       	in	r29, 0x3e	; 62
	char LCD_clearCodes[LCD_CLEAR_LEN];
	
	/* Set codes in LCD_clearCodes array */
	LCD_clearCodes[0] = LCD_SLAVEADDRESS;
 45a:	80 e5       	ldi	r24, 0x50	; 80
 45c:	89 83       	std	Y+1, r24	; 0x01
	LCD_clearCodes[1] = LCD_PREFIX;
 45e:	8e ef       	ldi	r24, 0xFE	; 254
 460:	8a 83       	std	Y+2, r24	; 0x02
	LCD_clearCodes[2] = LCD_CLEAR_SCREEN;
 462:	81 e5       	ldi	r24, 0x51	; 81
 464:	8b 83       	std	Y+3, r24	; 0x03
	
	/* Clear TWI stack, push packets on it, then send */
	TWI_clearStack();
 466:	cf de       	rcall	.-610    	; 0x206 <TWI_clearStack>
	TWI_pushPackets(LCD_clearCodes, LCD_CLEAR_LEN);
 468:	63 e0       	ldi	r22, 0x03	; 3
 46a:	ce 01       	movw	r24, r28
 46c:	01 96       	adiw	r24, 0x01	; 1
 46e:	5b de       	rcall	.-842    	; 0x126 <TWI_pushPackets>
	TWI_sendPackets();	
 470:	d4 de       	rcall	.-600    	; 0x21a <TWI_sendPackets>
	#else
		//round up by default
		__ticks_dc = (uint32_t)(ceil(fabs(__tmp)));
	#endif

	__builtin_avr_delay_cycles(__ticks_dc);
 472:	8d ee       	ldi	r24, 0xED	; 237
 474:	92 e0       	ldi	r25, 0x02	; 2
 476:	01 97       	sbiw	r24, 0x01	; 1
 478:	f1 f7       	brne	.-4      	; 0x476 <LCD_clear+0x28>
 47a:	00 c0       	rjmp	.+0      	; 0x47c <LCD_clear+0x2e>
 47c:	00 00       	nop
	_delay_ms(3);
 47e:	0f 90       	pop	r0
 480:	0f 90       	pop	r0
 482:	0f 90       	pop	r0
 484:	df 91       	pop	r29
 486:	cf 91       	pop	r28
 488:	08 95       	ret

0000048a <ADC_initialize>:
void ADC_initialize(volatile uint16_t *ADC_result)
{
	static uint8_t ADC_initialized = 0;
	
	/* Prevent duplicate initialization or use of a NULL pointer */
	if(ADC_initialized || !ADC_result) return;
 48a:	20 91 33 01 	lds	r18, 0x0133
 48e:	21 11       	cpse	r18, r1
 490:	0e c0       	rjmp	.+28     	; 0x4ae <ADC_initialize+0x24>
 492:	00 97       	sbiw	r24, 0x00	; 0
 494:	61 f0       	breq	.+24     	; 0x4ae <ADC_initialize+0x24>
	ADC_initialized = 1;	
 496:	21 e0       	ldi	r18, 0x01	; 1
 498:	20 93 33 01 	sts	0x0133, r18
	
	/* Copy pointer to global variable within the scope of this module */
	conversionResult = ADC_result;
 49c:	90 93 35 01 	sts	0x0135, r25
 4a0:	80 93 34 01 	sts	0x0134, r24
	
	ADMUX = ADC_CHANNEL |	/* Set channel of ADC hardware */
 4a4:	10 92 7c 00 	sts	0x007C, r1
			ADC_REFV;		/* Set reference voltage of ADC hardware */
			
	ADCSRA = (1 << ADEN) |	/* Enable the ADC hardware */
 4a8:	8b e8       	ldi	r24, 0x8B	; 139
 4aa:	80 93 7a 00 	sts	0x007A, r24
 4ae:	08 95       	ret

000004b0 <ADC_convert>:
 * Description:
 * This function will start one ADC conversion.
 */
void ADC_convert(void)
{
	ADCSRA |= (1 << ADSC); /* Start a conversion */	
 4b0:	ea e7       	ldi	r30, 0x7A	; 122
 4b2:	f0 e0       	ldi	r31, 0x00	; 0
 4b4:	80 81       	ld	r24, Z
 4b6:	80 64       	ori	r24, 0x40	; 64
 4b8:	80 83       	st	Z, r24
 4ba:	08 95       	ret

000004bc <__vector_21>:
 * Description:
 * The ISR takes the results of an ADC conversion and places it in the memory
 * location pointed to by conversionResult
 */
ISR(ADC_vect)
{
 4bc:	1f 92       	push	r1
 4be:	0f 92       	push	r0
 4c0:	0f b6       	in	r0, 0x3f	; 63
 4c2:	0f 92       	push	r0
 4c4:	11 24       	eor	r1, r1
 4c6:	2f 93       	push	r18
 4c8:	8f 93       	push	r24
 4ca:	9f 93       	push	r25
 4cc:	ef 93       	push	r30
 4ce:	ff 93       	push	r31
	*conversionResult = ADCL;
 4d0:	e0 91 34 01 	lds	r30, 0x0134
 4d4:	f0 91 35 01 	lds	r31, 0x0135
 4d8:	80 91 78 00 	lds	r24, 0x0078
 4dc:	90 e0       	ldi	r25, 0x00	; 0
 4de:	91 83       	std	Z+1, r25	; 0x01
 4e0:	80 83       	st	Z, r24
	*conversionResult |= ((uint16_t)ADCH << ADC_ONE_BYTE);
 4e2:	80 81       	ld	r24, Z
 4e4:	91 81       	ldd	r25, Z+1	; 0x01
 4e6:	20 91 79 00 	lds	r18, 0x0079
 4ea:	92 2b       	or	r25, r18
 4ec:	91 83       	std	Z+1, r25	; 0x01
 4ee:	80 83       	st	Z, r24
 4f0:	ff 91       	pop	r31
 4f2:	ef 91       	pop	r30
 4f4:	9f 91       	pop	r25
 4f6:	8f 91       	pop	r24
 4f8:	2f 91       	pop	r18
 4fa:	0f 90       	pop	r0
 4fc:	0f be       	out	0x3f, r0	; 63
 4fe:	0f 90       	pop	r0
 500:	1f 90       	pop	r1
 502:	18 95       	reti

00000504 <uhex_itoa>:
		_delay_ms(500);
	}
}

void uhex_itoa(uint16_t value, char *buf)
{
 504:	fb 01       	movw	r30, r22
	tempBuf1 = buf;
	tempBuf2 = buf;
	
	do
	{
		tempNum = value%16;
 506:	ac 01       	movw	r20, r24
 508:	4f 70       	andi	r20, 0x0F	; 15
 50a:	55 27       	eor	r21, r21
		value = value >> 4; /* divide by 16 */
 50c:	24 e0       	ldi	r18, 0x04	; 4
 50e:	96 95       	lsr	r25
 510:	87 95       	ror	r24
 512:	2a 95       	dec	r18
 514:	e1 f7       	brne	.-8      	; 0x50e <uhex_itoa+0xa>
 516:	9f 01       	movw	r18, r30
 518:	2f 5f       	subi	r18, 0xFF	; 255
 51a:	3f 4f       	sbci	r19, 0xFF	; 255
 51c:	d9 01       	movw	r26, r18
		if(tempNum < 10) *tempBuf1++ = tempNum + '0';
 51e:	4a 30       	cpi	r20, 0x0A	; 10
 520:	51 05       	cpc	r21, r1
 522:	10 f4       	brcc	.+4      	; 0x528 <uhex_itoa+0x24>
 524:	40 5d       	subi	r20, 0xD0	; 208
 526:	01 c0       	rjmp	.+2      	; 0x52a <uhex_itoa+0x26>
		else			 *tempBuf1++ = tempNum + 'A' - 10;
 528:	49 5c       	subi	r20, 0xC9	; 201
 52a:	40 83       	st	Z, r20
 52c:	f9 01       	movw	r30, r18
		
	} while(value);
 52e:	00 97       	sbiw	r24, 0x00	; 0
 530:	51 f7       	brne	.-44     	; 0x506 <uhex_itoa+0x2>
 532:	fb 01       	movw	r30, r22
	//*tempBuf1--  = '\0';
	
	do
	{
		tempChar = *tempBuf1;
 534:	8c 91       	ld	r24, X
		*tempBuf1 = *tempBuf2;
 536:	90 81       	ld	r25, Z
 538:	9c 93       	st	X, r25
		*tempBuf2 = tempChar;
 53a:	81 93       	st	Z+, r24
		--tempBuf1;
 53c:	11 97       	sbiw	r26, 0x01	; 1
		++tempBuf2;
			
	} while(tempBuf1 > tempBuf2);
 53e:	ea 17       	cp	r30, r26
 540:	fb 07       	cpc	r31, r27
 542:	c0 f3       	brcs	.-16     	; 0x534 <uhex_itoa+0x30>
 544:	08 95       	ret

00000546 <LED_initialize>:
  * Initialize the red, and green LED.
  */
  void LED_initialize()
  {
	/* Set up PORT B, pins 0, and 1 to be output */
	DDRB	|= (1<<DDB0) | (1<<DDB1);
 546:	84 b1       	in	r24, 0x04	; 4
 548:	83 60       	ori	r24, 0x03	; 3
 54a:	84 b9       	out	0x04, r24	; 4
	/* Set pins 0, and 1 to be high (LED's off) */
	PORTB	|= (1<<PB0) | (1<<PB1);
 54c:	85 b1       	in	r24, 0x05	; 5
 54e:	83 60       	ori	r24, 0x03	; 3
 550:	85 b9       	out	0x05, r24	; 5
 552:	08 95       	ret

00000554 <main>:
#define BIT_RATE			0x02

void uhex_itoa(uint16_t value, char *buf);

int main(void)
{
 554:	cf 93       	push	r28
 556:	df 93       	push	r29
 558:	00 d0       	rcall	.+0      	; 0x55a <main+0x6>
 55a:	00 d0       	rcall	.+0      	; 0x55c <main+0x8>
 55c:	1f 92       	push	r1
 55e:	cd b7       	in	r28, 0x3d	; 61
 560:	de b7       	in	r29, 0x3e	; 62
	/* dimFactor is the result of ADC conversion, while errCode will be asserted
	 * if there are errors when initializing other modules
	 */
	volatile uint16_t	dimFactor = 0;
 562:	1d 82       	std	Y+5, r1	; 0x05
 564:	1c 82       	std	Y+4, r1	; 0x04
	char const 			*topMessage = "Conversion:";
	char 				bottomMessage[MAX_ADC_RESULT_SIZE];
	
	LED_initialize();
 566:	ef df       	rcall	.-34     	; 0x546 <LED_initialize>
	LED_greenOn();
 568:	28 98       	cbi	0x05, 0	; 5
	LED_redOn();
 56a:	29 98       	cbi	0x05, 1	; 5
	
	/* TWI is being initialized by LCD module, check this is true before
	 * procceeding, Then initialize the ADC module.
	 */
	TWI_initialize(BIT_RATE, PRESCALAR);
 56c:	60 e0       	ldi	r22, 0x00	; 0
 56e:	82 e0       	ldi	r24, 0x02	; 2
 570:	82 dd       	rcall	.-1276   	; 0x76 <TWI_initialize>
	LCD_initialize();
 572:	ef de       	rcall	.-546    	; 0x352 <LCD_initialize>
	ADC_initialize(&dimFactor);
 574:	ce 01       	movw	r24, r28
 576:	04 96       	adiw	r24, 0x04	; 4
 578:	88 df       	rcall	.-240    	; 0x48a <ADC_initialize>
	sei();
 57a:	78 94       	sei
	
	LCD_clear();
 57c:	68 df       	rcall	.-304    	; 0x44e <LCD_clear>
	LCD_setCursor(0);
 57e:	80 e0       	ldi	r24, 0x00	; 0
 580:	2d df       	rcall	.-422    	; 0x3dc <LCD_setCursor>
	LCD_write(topMessage, 11);
 582:	6b e0       	ldi	r22, 0x0B	; 11
 584:	80 e0       	ldi	r24, 0x00	; 0
 586:	91 e0       	ldi	r25, 0x01	; 1
 588:	46 df       	rcall	.-372    	; 0x416 <LCD_write>
	LCD_setCursor(16);
 58a:	80 e1       	ldi	r24, 0x10	; 16
 58c:	27 df       	rcall	.-434    	; 0x3dc <LCD_setCursor>
	LCD_write("0x", 2);
 58e:	62 e0       	ldi	r22, 0x02	; 2
 590:	8c e0       	ldi	r24, 0x0C	; 12
 592:	91 e0       	ldi	r25, 0x01	; 1
 594:	40 df       	rcall	.-384    	; 0x416 <LCD_write>

	while(1)
	{
		ADC_convert();
		bottomMessage[0] = '0';
 596:	10 e3       	ldi	r17, 0x30	; 48
	LCD_setCursor(16);
	LCD_write("0x", 2);

	while(1)
	{
		ADC_convert();
 598:	8b df       	rcall	.-234    	; 0x4b0 <ADC_convert>
		bottomMessage[0] = '0';
 59a:	19 83       	std	Y+1, r17	; 0x01
		bottomMessage[1] = '0';
 59c:	1a 83       	std	Y+2, r17	; 0x02
		bottomMessage[2] = '0';	
 59e:	1b 83       	std	Y+3, r17	; 0x03
		uhex_itoa(dimFactor, bottomMessage);
 5a0:	8c 81       	ldd	r24, Y+4	; 0x04
 5a2:	9d 81       	ldd	r25, Y+5	; 0x05
 5a4:	be 01       	movw	r22, r28
 5a6:	6f 5f       	subi	r22, 0xFF	; 255
 5a8:	7f 4f       	sbci	r23, 0xFF	; 255
 5aa:	ac df       	rcall	.-168    	; 0x504 <uhex_itoa>
		LCD_setCursor(18);
 5ac:	82 e1       	ldi	r24, 0x12	; 18
 5ae:	16 df       	rcall	.-468    	; 0x3dc <LCD_setCursor>
		LCD_write(bottomMessage, MAX_ADC_RESULT_SIZE);
 5b0:	63 e0       	ldi	r22, 0x03	; 3
 5b2:	ce 01       	movw	r24, r28
 5b4:	01 96       	adiw	r24, 0x01	; 1
 5b6:	2f df       	rcall	.-418    	; 0x416 <LCD_write>
 5b8:	2f e9       	ldi	r18, 0x9F	; 159
 5ba:	86 e8       	ldi	r24, 0x86	; 134
 5bc:	91 e0       	ldi	r25, 0x01	; 1
 5be:	21 50       	subi	r18, 0x01	; 1
 5c0:	80 40       	sbci	r24, 0x00	; 0
 5c2:	90 40       	sbci	r25, 0x00	; 0
 5c4:	e1 f7       	brne	.-8      	; 0x5be <main+0x6a>
 5c6:	00 c0       	rjmp	.+0      	; 0x5c8 <main+0x74>
 5c8:	00 00       	nop
 5ca:	e6 cf       	rjmp	.-52     	; 0x598 <main+0x44>

000005cc <_exit>:
 5cc:	f8 94       	cli

000005ce <__stop_program>:
 5ce:	ff cf       	rjmp	.-2      	; 0x5ce <__stop_program>
